{
  "contractName": "Disaster",
  "abi": [
    {
      "constant": true,
      "inputs": [
        {
          "internalType": "uint256",
          "name": "",
          "type": "uint256"
        }
      ],
      "name": "campaigns",
      "outputs": [
        {
          "internalType": "uint256",
          "name": "camp_id",
          "type": "uint256"
        },
        {
          "internalType": "uint256",
          "name": "org_id",
          "type": "uint256"
        },
        {
          "internalType": "uint256",
          "name": "targetAmount",
          "type": "uint256"
        },
        {
          "internalType": "uint256",
          "name": "amountRaised",
          "type": "uint256"
        },
        {
          "internalType": "string",
          "name": "name",
          "type": "string"
        },
        {
          "internalType": "string",
          "name": "description",
          "type": "string"
        }
      ],
      "payable": false,
      "stateMutability": "view",
      "type": "function"
    },
    {
      "constant": true,
      "inputs": [
        {
          "internalType": "uint256",
          "name": "",
          "type": "uint256"
        }
      ],
      "name": "organisations",
      "outputs": [
        {
          "internalType": "uint256",
          "name": "org_id",
          "type": "uint256"
        },
        {
          "internalType": "string",
          "name": "name",
          "type": "string"
        },
        {
          "internalType": "string",
          "name": "email",
          "type": "string"
        },
        {
          "internalType": "string",
          "name": "password",
          "type": "string"
        },
        {
          "internalType": "string",
          "name": "doc_hash",
          "type": "string"
        },
        {
          "internalType": "uint256",
          "name": "phone_no",
          "type": "uint256"
        },
        {
          "internalType": "string",
          "name": "location",
          "type": "string"
        },
        {
          "internalType": "bool",
          "name": "status",
          "type": "bool"
        },
        {
          "internalType": "address",
          "name": "author",
          "type": "address"
        }
      ],
      "payable": false,
      "stateMutability": "view",
      "type": "function"
    },
    {
      "constant": true,
      "inputs": [],
      "name": "owner",
      "outputs": [
        {
          "internalType": "address",
          "name": "",
          "type": "address"
        }
      ],
      "payable": false,
      "stateMutability": "view",
      "type": "function"
    },
    {
      "constant": true,
      "inputs": [
        {
          "internalType": "uint256",
          "name": "",
          "type": "uint256"
        }
      ],
      "name": "volunteers",
      "outputs": [
        {
          "internalType": "uint256",
          "name": "vol_id",
          "type": "uint256"
        },
        {
          "internalType": "string",
          "name": "location",
          "type": "string"
        },
        {
          "internalType": "string",
          "name": "name",
          "type": "string"
        },
        {
          "internalType": "string",
          "name": "email",
          "type": "string"
        },
        {
          "internalType": "uint256",
          "name": "phone_no",
          "type": "uint256"
        },
        {
          "internalType": "address",
          "name": "vol_address",
          "type": "address"
        }
      ],
      "payable": false,
      "stateMutability": "view",
      "type": "function"
    },
    {
      "constant": false,
      "inputs": [
        {
          "internalType": "string",
          "name": "_name",
          "type": "string"
        },
        {
          "internalType": "string",
          "name": "_email",
          "type": "string"
        },
        {
          "internalType": "string",
          "name": "_password",
          "type": "string"
        },
        {
          "internalType": "uint256",
          "name": "phoneNo",
          "type": "uint256"
        },
        {
          "internalType": "string",
          "name": "_location",
          "type": "string"
        },
        {
          "internalType": "string",
          "name": "_docHash",
          "type": "string"
        }
      ],
      "name": "addOrg",
      "outputs": [
        {
          "internalType": "bool",
          "name": "",
          "type": "bool"
        }
      ],
      "payable": false,
      "stateMutability": "nonpayable",
      "type": "function"
    },
    {
      "constant": false,
      "inputs": [
        {
          "internalType": "string",
          "name": "_location",
          "type": "string"
        },
        {
          "internalType": "string",
          "name": "_name",
          "type": "string"
        },
        {
          "internalType": "string",
          "name": "_email",
          "type": "string"
        },
        {
          "internalType": "uint256",
          "name": "_phone_no",
          "type": "uint256"
        }
      ],
      "name": "addVol",
      "outputs": [
        {
          "internalType": "bool",
          "name": "",
          "type": "bool"
        }
      ],
      "payable": false,
      "stateMutability": "nonpayable",
      "type": "function"
    },
    {
      "constant": false,
      "inputs": [
        {
          "internalType": "uint256",
          "name": "_orgId",
          "type": "uint256"
        },
        {
          "internalType": "uint256",
          "name": "_targetAmount",
          "type": "uint256"
        },
        {
          "internalType": "uint256",
          "name": "_amountRaised",
          "type": "uint256"
        },
        {
          "internalType": "string",
          "name": "_name",
          "type": "string"
        },
        {
          "internalType": "string",
          "name": "_description",
          "type": "string"
        }
      ],
      "name": "createCampaign",
      "outputs": [
        {
          "internalType": "bool",
          "name": "",
          "type": "bool"
        }
      ],
      "payable": false,
      "stateMutability": "nonpayable",
      "type": "function"
    },
    {
      "constant": false,
      "inputs": [
        {
          "internalType": "uint256",
          "name": "org_id",
          "type": "uint256"
        }
      ],
      "name": "approveOrg",
      "outputs": [],
      "payable": false,
      "stateMutability": "nonpayable",
      "type": "function"
    },
    {
      "constant": true,
      "inputs": [
        {
          "internalType": "uint256",
          "name": "org_id",
          "type": "uint256"
        }
      ],
      "name": "checkOrgStatus",
      "outputs": [
        {
          "internalType": "bool",
          "name": "",
          "type": "bool"
        }
      ],
      "payable": false,
      "stateMutability": "view",
      "type": "function"
    },
    {
      "constant": true,
      "inputs": [],
      "name": "getAOrgCount",
      "outputs": [
        {
          "internalType": "uint256",
          "name": "",
          "type": "uint256"
        }
      ],
      "payable": false,
      "stateMutability": "view",
      "type": "function"
    },
    {
      "constant": true,
      "inputs": [],
      "name": "getVolunteerCount",
      "outputs": [
        {
          "internalType": "uint256",
          "name": "",
          "type": "uint256"
        }
      ],
      "payable": false,
      "stateMutability": "view",
      "type": "function"
    },
    {
      "constant": true,
      "inputs": [],
      "name": "getCampaignCount",
      "outputs": [
        {
          "internalType": "uint256",
          "name": "",
          "type": "uint256"
        }
      ],
      "payable": false,
      "stateMutability": "view",
      "type": "function"
    },
    {
      "constant": true,
      "inputs": [
        {
          "internalType": "uint256",
          "name": "orgId",
          "type": "uint256"
        }
      ],
      "name": "getOrg",
      "outputs": [
        {
          "internalType": "uint256",
          "name": "",
          "type": "uint256"
        },
        {
          "internalType": "address",
          "name": "",
          "type": "address"
        },
        {
          "internalType": "bool",
          "name": "",
          "type": "bool"
        },
        {
          "internalType": "string",
          "name": "",
          "type": "string"
        },
        {
          "internalType": "string",
          "name": "",
          "type": "string"
        },
        {
          "internalType": "string",
          "name": "",
          "type": "string"
        },
        {
          "internalType": "uint256",
          "name": "",
          "type": "uint256"
        },
        {
          "internalType": "string",
          "name": "",
          "type": "string"
        },
        {
          "internalType": "string",
          "name": "",
          "type": "string"
        }
      ],
      "payable": false,
      "stateMutability": "view",
      "type": "function"
    },
    {
      "constant": true,
      "inputs": [
        {
          "internalType": "uint256",
          "name": "volId",
          "type": "uint256"
        }
      ],
      "name": "getVol",
      "outputs": [
        {
          "internalType": "uint256",
          "name": "",
          "type": "uint256"
        },
        {
          "internalType": "string",
          "name": "",
          "type": "string"
        },
        {
          "internalType": "string",
          "name": "",
          "type": "string"
        },
        {
          "internalType": "string",
          "name": "",
          "type": "string"
        },
        {
          "internalType": "uint256",
          "name": "",
          "type": "uint256"
        },
        {
          "internalType": "address",
          "name": "",
          "type": "address"
        }
      ],
      "payable": false,
      "stateMutability": "view",
      "type": "function"
    },
    {
      "constant": true,
      "inputs": [
        {
          "internalType": "uint256",
          "name": "campId",
          "type": "uint256"
        }
      ],
      "name": "getCamp",
      "outputs": [
        {
          "internalType": "uint256",
          "name": "",
          "type": "uint256"
        },
        {
          "internalType": "uint256",
          "name": "",
          "type": "uint256"
        },
        {
          "internalType": "uint256",
          "name": "",
          "type": "uint256"
        },
        {
          "internalType": "uint256",
          "name": "",
          "type": "uint256"
        },
        {
          "internalType": "string",
          "name": "",
          "type": "string"
        },
        {
          "internalType": "string",
          "name": "",
          "type": "string"
        }
      ],
      "payable": false,
      "stateMutability": "view",
      "type": "function"
    },
    {
      "constant": true,
      "inputs": [
        {
          "internalType": "string",
          "name": "_email",
          "type": "string"
        },
        {
          "internalType": "string",
          "name": "_password",
          "type": "string"
        }
      ],
      "name": "loginOrg",
      "outputs": [
        {
          "internalType": "bool",
          "name": "",
          "type": "bool"
        }
      ],
      "payable": false,
      "stateMutability": "view",
      "type": "function"
    }
  ],
  "bytecode": "0x608060405234801561001057600080fd5b50612c8d806100206000396000f3fe608060405234801561001057600080fd5b50600436106101005760003560e01c80636caa921811610097578063b29d190711610066578063b29d19071461119e578063b33b544a146113a9578063b60adf8914611513578063d1da2f7c1461155957610100565b80636caa921814610cce5780638da5cb5b14610cec578063a1f5149814610d36578063a603adfb14610e6557610100565b8063246f8c44116100d3578063246f8c44146106b55780633dbf8cc5146109585780636375763414610b18578063637d12ec14610ca057610100565b8063040b030f1461010557806309f4a981146102c5578063141961bc146102e35780632360c27f14610412575b600080fd5b6101316004803603602081101561011b57600080fd5b8101908080359060200190929190505050611577565b604051808781526020018060200180602001806020018681526020018573ffffffffffffffffffffffffffffffffffffffff1673ffffffffffffffffffffffffffffffffffffffff168152602001848103845289818151815260200191508051906020019080838360005b838110156101b757808201518184015260208101905061019c565b50505050905090810190601f1680156101e45780820380516001836020036101000a031916815260200191505b50848103835288818151815260200191508051906020019080838360005b8381101561021d578082015181840152602081019050610202565b50505050905090810190601f16801561024a5780820380516001836020036101000a031916815260200191505b50848103825287818151815260200191508051906020019080838360005b83811015610283578082015181840152602081019050610268565b50505050905090810190601f1680156102b05780820380516001836020036101000a031916815260200191505b50995050505050505050505060405180910390f35b6102cd6117c5565b6040518082815260200191505060405180910390f35b61030f600480360360208110156102f957600080fd5b81019080803590602001909291905050506117d2565b604051808781526020018681526020018581526020018481526020018060200180602001838103835285818151815260200191508051906020019080838360005b8381101561036b578082015181840152602081019050610350565b50505050905090810190601f1680156103985780820380516001836020036101000a031916815260200191505b50838103825284818151815260200191508051906020019080838360005b838110156103d15780820151818401526020810190506103b6565b50505050905090810190601f1680156103fe5780820380516001836020036101000a031916815260200191505b509850505050505050505060405180910390f35b61043e6004803603602081101561042857600080fd5b810190808035906020019092919050505061194b565b604051808a81526020018973ffffffffffffffffffffffffffffffffffffffff1673ffffffffffffffffffffffffffffffffffffffff16815260200188151515158152602001806020018060200180602001878152602001806020018060200186810386528c818151815260200191508051906020019080838360005b838110156104d65780820151818401526020810190506104bb565b50505050905090810190601f1680156105035780820380516001836020036101000a031916815260200191505b5086810385528b818151815260200191508051906020019080838360005b8381101561053c578082015181840152602081019050610521565b50505050905090810190601f1680156105695780820380516001836020036101000a031916815260200191505b5086810384528a818151815260200191508051906020019080838360005b838110156105a2578082015181840152602081019050610587565b50505050905090810190601f1680156105cf5780820380516001836020036101000a031916815260200191505b50868103835288818151815260200191508051906020019080838360005b838110156106085780820151818401526020810190506105ed565b50505050905090810190601f1680156106355780820380516001836020036101000a031916815260200191505b50868103825287818151815260200191508051906020019080838360005b8381101561066e578082015181840152602081019050610653565b50505050905090810190601f16801561069b5780820380516001836020036101000a031916815260200191505b509e50505050505050505050505050505060405180910390f35b6106e1600480360360208110156106cb57600080fd5b8101908080359060200190929190505050611cfa565b604051808a81526020018060200180602001806020018060200189815260200180602001881515151581526020018773ffffffffffffffffffffffffffffffffffffffff1673ffffffffffffffffffffffffffffffffffffffff16815260200186810386528e818151815260200191508051906020019080838360005b8381101561077957808201518184015260208101905061075e565b50505050905090810190601f1680156107a65780820380516001836020036101000a031916815260200191505b5086810385528d818151815260200191508051906020019080838360005b838110156107df5780820151818401526020810190506107c4565b50505050905090810190601f16801561080c5780820380516001836020036101000a031916815260200191505b5086810384528c818151815260200191508051906020019080838360005b8381101561084557808201518184015260208101905061082a565b50505050905090810190601f1680156108725780820380516001836020036101000a031916815260200191505b5086810383528b818151815260200191508051906020019080838360005b838110156108ab578082015181840152602081019050610890565b50505050905090810190601f1680156108d85780820380516001836020036101000a031916815260200191505b50868103825289818151815260200191508051906020019080838360005b838110156109115780820151818401526020810190506108f6565b50505050905090810190601f16801561093e5780820380516001836020036101000a031916815260200191505b509e50505050505050505050505050505060405180910390f35b6109846004803603602081101561096e57600080fd5b810190808035906020019092919050505061207a565b604051808781526020018060200180602001806020018681526020018573ffffffffffffffffffffffffffffffffffffffff1673ffffffffffffffffffffffffffffffffffffffff168152602001848103845289818151815260200191508051906020019080838360005b83811015610a0a5780820151818401526020810190506109ef565b50505050905090810190601f168015610a375780820380516001836020036101000a031916815260200191505b50848103835288818151815260200191508051906020019080838360005b83811015610a70578082015181840152602081019050610a55565b50505050905090810190601f168015610a9d5780820380516001836020036101000a031916815260200191505b50848103825287818151815260200191508051906020019080838360005b83811015610ad6578082015181840152602081019050610abb565b50505050905090810190601f168015610b035780820380516001836020036101000a031916815260200191505b50995050505050505050505060405180910390f35b610c86600480360360a0811015610b2e57600080fd5b8101908080359060200190929190803590602001909291908035906020019092919080359060200190640100000000811115610b6957600080fd5b820183602082011115610b7b57600080fd5b80359060200191846001830284011164010000000083111715610b9d57600080fd5b91908080601f016020809104026020016040519081016040528093929190818152602001838380828437600081840152601f19601f82011690508083019250505050505050919291929080359060200190640100000000811115610c0057600080fd5b820183602082011115610c1257600080fd5b80359060200191846001830284011164010000000083111715610c3457600080fd5b91908080601f016020809104026020016040519081016040528093929190818152602001838380828437600081840152601f19601f8201169050808301925050505050505091929192905050506122ab565b604051808215151515815260200191505060405180910390f35b610ccc60048036036020811015610cb657600080fd5b8101908080359060200190929190505050612352565b005b610cd6612392565b6040518082815260200191505060405180910390f35b610cf461239f565b604051808273ffffffffffffffffffffffffffffffffffffffff1673ffffffffffffffffffffffffffffffffffffffff16815260200191505060405180910390f35b610d6260048036036020811015610d4c57600080fd5b81019080803590602001909291905050506123c4565b604051808781526020018681526020018581526020018481526020018060200180602001838103835285818151815260200191508051906020019080838360005b83811015610dbe578082015181840152602081019050610da3565b50505050905090810190601f168015610deb5780820380516001836020036101000a031916815260200191505b50838103825284818151815260200191508051906020019080838360005b83811015610e24578082015181840152602081019050610e09565b50505050905090810190601f168015610e515780820380516001836020036101000a031916815260200191505b509850505050505050505060405180910390f35b611184600480360360c0811015610e7b57600080fd5b8101908080359060200190640100000000811115610e9857600080fd5b820183602082011115610eaa57600080fd5b80359060200191846001830284011164010000000083111715610ecc57600080fd5b91908080601f016020809104026020016040519081016040528093929190818152602001838380828437600081840152601f19601f82011690508083019250505050505050919291929080359060200190640100000000811115610f2f57600080fd5b820183602082011115610f4157600080fd5b80359060200191846001830284011164010000000083111715610f6357600080fd5b91908080601f016020809104026020016040519081016040528093929190818152602001838380828437600081840152601f19601f82011690508083019250505050505050919291929080359060200190640100000000811115610fc657600080fd5b820183602082011115610fd857600080fd5b80359060200191846001830284011164010000000083111715610ffa57600080fd5b91908080601f016020809104026020016040519081016040528093929190818152602001838380828437600081840152601f19601f820116905080830192505050505050509192919290803590602001909291908035906020019064010000000081111561106757600080fd5b82018360208201111561107957600080fd5b8035906020019184600183028401116401000000008311171561109b57600080fd5b91908080601f016020809104026020016040519081016040528093929190818152602001838380828437600081840152601f19601f820116905080830192505050505050509192919290803590602001906401000000008111156110fe57600080fd5b82018360208201111561111057600080fd5b8035906020019184600183028401116401000000008311171561113257600080fd5b91908080601f016020809104026020016040519081016040528093929190818152602001838380828437600081840152601f19601f820116905080830192505050505050509192919290505050612556565b604051808215151515815260200191505060405180910390f35b61138f600480360360808110156111b457600080fd5b81019080803590602001906401000000008111156111d157600080fd5b8201836020820111156111e357600080fd5b8035906020019184600183028401116401000000008311171561120557600080fd5b91908080601f016020809104026020016040519081016040528093929190818152602001838380828437600081840152601f19601f8201169050808301925050505050505091929192908035906020019064010000000081111561126857600080fd5b82018360208201111561127a57600080fd5b8035906020019184600183028401116401000000008311171561129c57600080fd5b91908080601f016020809104026020016040519081016040528093929190818152602001838380828437600081840152601f19601f820116905080830192505050505050509192919290803590602001906401000000008111156112ff57600080fd5b82018360208201111561131157600080fd5b8035906020019184600183028401116401000000008311171561133357600080fd5b91908080601f016020809104026020016040519081016040528093929190818152602001838380828437600081840152601f19601f8201169050808301925050505050505091929192908035906020019092919050505061269a565b604051808215151515815260200191505060405180910390f35b6114f9600480360360408110156113bf57600080fd5b81019080803590602001906401000000008111156113dc57600080fd5b8201836020820111156113ee57600080fd5b8035906020019184600183028401116401000000008311171561141057600080fd5b91908080601f016020809104026020016040519081016040528093929190818152602001838380828437600081840152601f19601f8201169050808301925050505050505091929192908035906020019064010000000081111561147357600080fd5b82018360208201111561148557600080fd5b803590602001918460018302840111640100000000831117156114a757600080fd5b91908080601f016020809104026020016040519081016040528093929190818152602001838380828437600081840152601f19601f82011690508083019250505050505050919291929050505061278d565b604051808215151515815260200191505060405180910390f35b61153f6004803603602081101561152957600080fd5b81019080803590602001909291905050506128ef565b604051808215151515815260200191505060405180910390f35b611561612929565b6040518082815260200191505060405180910390f35b6000606080606060008060006002888154811061159057fe5b90600052602060002090600602019050806000015481600101826002018360030184600401548560050160009054906101000a900473ffffffffffffffffffffffffffffffffffffffff16848054600181600116156101000203166002900480601f0160208091040260200160405190810160405280929190818152602001828054600181600116156101000203166002900480156116705780601f1061164557610100808354040283529160200191611670565b820191906000526020600020905b81548152906001019060200180831161165357829003601f168201915b50505050509450838054600181600116156101000203166002900480601f01602080910402602001604051908101604052809291908181526020018280546001816001161561010002031660029004801561170c5780601f106116e15761010080835404028352916020019161170c565b820191906000526020600020905b8154815290600101906020018083116116ef57829003601f168201915b50505050509350828054600181600116156101000203166002900480601f0160208091040260200160405190810160405280929190818152602001828054600181600116156101000203166002900480156117a85780601f1061177d576101008083540402835291602001916117a8565b820191906000526020600020905b81548152906001019060200180831161178b57829003601f168201915b505050505092509650965096509650965096505091939550919395565b6000600380549050905090565b600181815481106117df57fe5b9060005260206000209060060201600091509050806000015490806001015490806002015490806003015490806004018054600181600116156101000203166002900480601f0160208091040260200160405190810160405280929190818152602001828054600181600116156101000203166002900480156118a35780601f10611878576101008083540402835291602001916118a3565b820191906000526020600020905b81548152906001019060200180831161188657829003601f168201915b505050505090806005018054600181600116156101000203166002900480601f0160208091040260200160405190810160405280929190818152602001828054600181600116156101000203166002900480156119415780601f1061191657610100808354040283529160200191611941565b820191906000526020600020905b81548152906001019060200180831161192457829003601f168201915b5050505050905086565b600080600060608060606000606080600060038b8154811061196957fe5b9060005260206000209060080201905080600001548160070160019054906101000a900473ffffffffffffffffffffffffffffffffffffffff168260070160009054906101000a900460ff1683600101846002018560030186600501548760060188600401858054600181600116156101000203166002900480601f016020809104026020016040519081016040528092919081815260200182805460018160011615610100020316600290048015611a635780601f10611a3857610100808354040283529160200191611a63565b820191906000526020600020905b815481529060010190602001808311611a4657829003601f168201915b50505050509550848054600181600116156101000203166002900480601f016020809104026020016040519081016040528092919081815260200182805460018160011615610100020316600290048015611aff5780601f10611ad457610100808354040283529160200191611aff565b820191906000526020600020905b815481529060010190602001808311611ae257829003601f168201915b50505050509450838054600181600116156101000203166002900480601f016020809104026020016040519081016040528092919081815260200182805460018160011615610100020316600290048015611b9b5780601f10611b7057610100808354040283529160200191611b9b565b820191906000526020600020905b815481529060010190602001808311611b7e57829003601f168201915b50505050509350818054600181600116156101000203166002900480601f016020809104026020016040519081016040528092919081815260200182805460018160011615610100020316600290048015611c375780601f10611c0c57610100808354040283529160200191611c37565b820191906000526020600020905b815481529060010190602001808311611c1a57829003601f168201915b50505050509150808054600181600116156101000203166002900480601f016020809104026020016040519081016040528092919081815260200182805460018160011615610100020316600290048015611cd35780601f10611ca857610100808354040283529160200191611cd3565b820191906000526020600020905b815481529060010190602001808311611cb657829003601f168201915b50505050509050995099509950995099509950995099509950509193959799909294969850565b60038181548110611d0757fe5b9060005260206000209060080201600091509050806000015490806001018054600181600116156101000203166002900480601f016020809104026020016040519081016040528092919081815260200182805460018160011615610100020316600290048015611db95780601f10611d8e57610100808354040283529160200191611db9565b820191906000526020600020905b815481529060010190602001808311611d9c57829003601f168201915b505050505090806002018054600181600116156101000203166002900480601f016020809104026020016040519081016040528092919081815260200182805460018160011615610100020316600290048015611e575780601f10611e2c57610100808354040283529160200191611e57565b820191906000526020600020905b815481529060010190602001808311611e3a57829003601f168201915b505050505090806003018054600181600116156101000203166002900480601f016020809104026020016040519081016040528092919081815260200182805460018160011615610100020316600290048015611ef55780601f10611eca57610100808354040283529160200191611ef5565b820191906000526020600020905b815481529060010190602001808311611ed857829003601f168201915b505050505090806004018054600181600116156101000203166002900480601f016020809104026020016040519081016040528092919081815260200182805460018160011615610100020316600290048015611f935780601f10611f6857610100808354040283529160200191611f93565b820191906000526020600020905b815481529060010190602001808311611f7657829003601f168201915b505050505090806005015490806006018054600181600116156101000203166002900480601f0160208091040260200160405190810160405280929190818152602001828054600181600116156101000203166002900480156120375780601f1061200c57610100808354040283529160200191612037565b820191906000526020600020905b81548152906001019060200180831161201a57829003601f168201915b5050505050908060070160009054906101000a900460ff16908060070160019054906101000a900473ffffffffffffffffffffffffffffffffffffffff16905089565b6002818154811061208757fe5b9060005260206000209060060201600091509050806000015490806001018054600181600116156101000203166002900480601f0160208091040260200160405190810160405280929190818152602001828054600181600116156101000203166002900480156121395780601f1061210e57610100808354040283529160200191612139565b820191906000526020600020905b81548152906001019060200180831161211c57829003601f168201915b505050505090806002018054600181600116156101000203166002900480601f0160208091040260200160405190810160405280929190818152602001828054600181600116156101000203166002900480156121d75780601f106121ac576101008083540402835291602001916121d7565b820191906000526020600020905b8154815290600101906020018083116121ba57829003601f168201915b505050505090806003018054600181600116156101000203166002900480601f0160208091040260200160405190810160405280929190818152602001828054600181600116156101000203166002900480156122755780601f1061224a57610100808354040283529160200191612275565b820191906000526020600020905b81548152906001019060200180831161225857829003601f168201915b5050505050908060040154908060050160009054906101000a900473ffffffffffffffffffffffffffffffffffffffff16905086565b6000600180548091906001016122c19190612936565b506000600180808054905003815481106122d757fe5b90600052602060002090600602019050600180805490500381600001819055508681600101819055508581600201819055508481600301819055508381600401908051906020019061232a929190612968565b5082816005019080519060200190612343929190612968565b50600191505095945050505050565b60006003828154811061236157fe5b9060005260206000209060080201905060018160070160006101000a81548160ff0219169083151502179055505050565b6000600180549050905090565b6000809054906101000a900473ffffffffffffffffffffffffffffffffffffffff1681565b6000806000806060806000600188815481106123dc57fe5b9060005260206000209060060201905080600001548160010154826002015483600301548460040185600501818054600181600116156101000203166002900480601f01602080910402602001604051908101604052809291908181526020018280546001816001161561010002031660029004801561249d5780601f106124725761010080835404028352916020019161249d565b820191906000526020600020905b81548152906001019060200180831161248057829003601f168201915b50505050509150808054600181600116156101000203166002900480601f0160208091040260200160405190810160405280929190818152602001828054600181600116156101000203166002900480156125395780601f1061250e57610100808354040283529160200191612539565b820191906000526020600020905b81548152906001019060200180831161251c57829003601f168201915b505050505090509650965096509650965096505091939550919395565b60006003805480919060010161256c91906129e8565b50600060036001600380549050038154811061258457fe5b906000526020600020906008020190506001600380549050038160000181905550338160070160016101000a81548173ffffffffffffffffffffffffffffffffffffffff021916908373ffffffffffffffffffffffffffffffffffffffff16021790555060008160070160006101000a81548160ff0219169083151502179055508781600101908051906020019061261d929190612968565b5086816002019080519060200190612636929190612968565b508581600301908051906020019061264f929190612968565b5084816005018190555083816006019080519060200190612671929190612968565b508281600401908051906020019061268a929190612968565b5060019150509695505050505050565b6000600280548091906001016126b09190612a1a565b5060006002600160028054905003815481106126c857fe5b90600052602060002090600602019050600160028054905003816000018190555085816001019080519060200190612701929190612968565b508481600201908051906020019061271a929190612968565b5083816003019080519060200190612733929190612968565b50828160040181905550338160050160006101000a81548173ffffffffffffffffffffffffffffffffffffffff021916908373ffffffffffffffffffffffffffffffffffffffff1602179055506001915050949350505050565b6000806000905060008090505b6003805490508110156128e4578480519060200120600382815481106127bc57fe5b906000526020600020906008020160020160405180828054600181600116156101000203166002900480156128285780601f10612806576101008083540402835291820191612828565b820191906000526020600020905b815481529060010190602001808311612814575b505091505060405180910390201480156128cd575083805190602001206003828154811061285257fe5b906000526020600020906008020160030160405180828054600181600116156101000203166002900480156128be5780601f1061289c5761010080835404028352918201916128be565b820191906000526020600020905b8154815290600101906020018083116128aa575b50509150506040518091039020145b156128d757600191505b808060010191505061279a565b508091505092915050565b600080600383815481106128ff57fe5b906000526020600020906008020190508060070160009054906101000a900460ff16915050919050565b6000600280549050905090565b815481835581811115612963576006028160060283600052602060002091820191016129629190612a4c565b5b505050565b828054600181600116156101000203166002900490600052602060002090601f016020900481019282601f106129a957805160ff19168380011785556129d7565b828001600101855582156129d7579182015b828111156129d65782518255916020019190600101906129bb565b5b5090506129e49190612aab565b5090565b815481835581811115612a1557600802816008028360005260206000209182019101612a149190612ad0565b5b505050565b815481835581811115612a4757600602816006028360005260206000209182019101612a469190612b8a565b5b505050565b612aa891905b80821115612aa457600080820160009055600182016000905560028201600090556003820160009055600482016000612a8b9190612c10565b600582016000612a9b9190612c10565b50600601612a52565b5090565b90565b612acd91905b80821115612ac9576000816000905550600101612ab1565b5090565b90565b612b8791905b80821115612b8357600080820160009055600182016000612af79190612c10565b600282016000612b079190612c10565b600382016000612b179190612c10565b600482016000612b279190612c10565b6005820160009055600682016000612b3f9190612c10565b6007820160006101000a81549060ff02191690556007820160016101000a81549073ffffffffffffffffffffffffffffffffffffffff021916905550600801612ad6565b5090565b90565b612c0d91905b80821115612c0957600080820160009055600182016000612bb19190612c10565b600282016000612bc19190612c10565b600382016000612bd19190612c10565b60048201600090556005820160006101000a81549073ffffffffffffffffffffffffffffffffffffffff021916905550600601612b90565b5090565b90565b50805460018160011615610100020316600290046000825580601f10612c365750612c55565b601f016020900490600052602060002090810190612c549190612aab565b5b5056fea265627a7a7231582071717963a82c5bbb7b362ba268800e89eece9bf0a8d5044611c74ce13f7a4c0064736f6c63430005100032",
  "source": "// SPDX-License-Identifier: GPL-3.0\r\npragma solidity ^0.5.0;\r\n\r\ncontract Disaster{\r\n    address public owner;\r\n\r\n    struct Organisation{\r\n        uint org_id;\r\n        string name;\r\n        string email;\r\n        string password;\r\n        string doc_hash;\r\n        uint phone_no;\r\n        string location;\r\n        bool status;\r\n        address author;\r\n }\r\n\r\n    struct Volunteer{\r\n        uint vol_id;\r\n        string location;\r\n        string name;\r\n        string email;\r\n        uint phone_no;\r\n        address vol_address;\r\n     \r\n     }\r\n\r\n\r\n    struct Campaign{\r\n         uint camp_id;\r\n         uint org_id;\r\n         uint targetAmount;\r\n         uint amountRaised;\r\n         string name;\r\n         string description;\r\n     }\r\n\r\n\r\n    Campaign[] public campaigns;\r\n    Volunteer[] public volunteers;\r\n    Organisation[] public organisations;\r\n   \r\n\r\n    //function to register organisation\r\n    function addOrg(string memory _name, string memory _email, string memory _password, uint phoneNo, string memory _location, string memory _docHash) public returns(bool){ \r\n        organisations.length++;\r\n        Organisation storage c = organisations[organisations.length - 1];\r\n        c.org_id = organisations.length - 1;\r\n        c.author = msg.sender;\r\n        c.status = false;\r\n        c.name = _name;\r\n        c.email = _email;\r\n        c.password = _password;\r\n        c.phone_no  = phoneNo;\r\n        c.location = _location;\r\n        c.doc_hash = _docHash;\r\n        return true;\r\n\r\n    }\r\n\r\n    //function to register volunteer\r\n    function addVol( string memory _location, string memory _name, string memory _email, uint _phone_no) public returns(bool){\r\n        volunteers.length++;\r\n        Volunteer storage v = volunteers[volunteers.length - 1];\r\n        v.vol_id = volunteers.length - 1;\r\n        v.location = _location;\r\n        v.name = _name;\r\n        v.email = _email;\r\n        v.phone_no = _phone_no;\r\n        v.vol_address = msg.sender;\r\n        return true;\r\n\r\n    }\r\n\r\n    //function to create a campaign \r\n    function createCampaign(uint _orgId, uint _targetAmount, uint _amountRaised, string memory _name,string memory _description) public returns(bool){\r\n        campaigns.length++;\r\n        Campaign storage c = campaigns[campaigns.length - 1];\r\n        c.camp_id = campaigns.length - 1;\r\n        c.org_id = _orgId;\r\n        c.targetAmount = _targetAmount;\r\n        c.amountRaised = _amountRaised;\r\n        c.name = _name;\r\n        c.description = _description;\r\n        return true;\r\n    }\r\n   \r\n   //function to approve orgaisation\r\n   function approveOrg(uint org_id) public{\r\n       Organisation storage o = organisations[org_id] ;\r\n       o.status = true;\r\n   }\r\n\r\n   //function to check of organisation is approved or not\r\n   function checkOrgStatus(uint org_id) public view returns(bool){\r\n       Organisation storage o = organisations[org_id] ;\r\n       return o.status;\r\n   }\r\n\r\n   //function to get organisation count \r\n   function getAOrgCount() public view returns(uint) {\r\n       return organisations.length;\r\n   }\r\n\r\n   //function to get Volunteer count\r\n   function getVolunteerCount() public view returns(uint){\r\n       return volunteers.length;\r\n   }\r\n\r\n   //function to get Campaign count\r\n   function getCampaignCount() public view returns(uint){\r\n       return campaigns.length;\r\n   }\r\n\r\n    function getOrg(uint orgId) public view returns(uint, address,bool, string memory, string memory, string memory, \r\n    uint,string memory, string memory ) {\r\n       Organisation storage c = organisations[orgId];\r\n       return (c.org_id,\r\n        c.author,\r\n        c.status,\r\n        c.name ,\r\n        c.email,\r\n        c.password,\r\n        c.phone_no ,\r\n        c.location,\r\n        c.doc_hash);\r\n    }\r\n\r\n    function getVol(uint volId) public view returns(uint,string memory , string memory, string memory, uint , address  ) {\r\n       Volunteer storage v = volunteers[volId];\r\n       return (  v.vol_id,v.location,v.name ,v.email, v.phone_no,v.vol_address);\r\n    }\r\n\r\n    function getCamp(uint campId) public view returns(uint,uint,uint, uint,string memory , string memory) {\r\n       Campaign storage c = campaigns[campId];\r\n       return ( c.camp_id,c.org_id, c.targetAmount , c.amountRaised , c.name,c.description );\r\n    }\r\n\r\n    //function to login organisation\r\n    function loginOrg(string memory _email,string memory _password ) public view returns(bool){\r\n        \r\n        bool flag = false;\r\n        for(uint i=0; i<organisations.length; i++){\r\n          if(keccak256(bytes(organisations[i].email)) == keccak256(bytes(_email)) && keccak256(bytes(organisations[i].password)) == keccak256(bytes(_password)))flag=true;\r\n        }\r\n        return flag;\r\n    }\r\n  \r\n\r\n \r\n \r\n\r\n\r\n\r\n}",
  "sourcePath": "D:/odisha-frontend/Team_HoneyBadger/contracts/disaster.sol",
  "compiler": {
    "name": "solc",
    "version": "0.5.16+commit.9c3226ce.Emscripten.clang"
  },
  "schemaVersion": "3.2.3",
  "updatedAt": "2022-09-11T06:25:52.375Z",
  "networkType": "ethereum",
  "devdoc": {
    "methods": {}
  },
  "userdoc": {
    "methods": {}
  }
}